{
  "contractName": "bank",
  "abi": [
    {
      "inputs": [
        {
          "internalType": "address",
          "name": "",
          "type": "address"
        }
      ],
      "name": "BankCuList",
      "outputs": [
        {
          "internalType": "uint256",
          "name": "",
          "type": "uint256"
        }
      ],
      "stateMutability": "view",
      "type": "function"
    },
    {
      "inputs": [],
      "name": "bankAddr",
      "outputs": [
        {
          "internalType": "address",
          "name": "",
          "type": "address"
        }
      ],
      "stateMutability": "view",
      "type": "function"
    },
    {
      "inputs": [],
      "name": "Deposit",
      "outputs": [
        {
          "internalType": "uint256",
          "name": "",
          "type": "uint256"
        }
      ],
      "stateMutability": "payable",
      "type": "function"
    },
    {
      "inputs": [],
      "name": "getbalance",
      "outputs": [
        {
          "internalType": "uint256",
          "name": "",
          "type": "uint256"
        }
      ],
      "stateMutability": "view",
      "type": "function"
    },
    {
      "inputs": [
        {
          "internalType": "uint256",
          "name": "_amount",
          "type": "uint256"
        }
      ],
      "name": "withdr",
      "outputs": [],
      "stateMutability": "nonpayable",
      "type": "function"
    }
  ],
  "bytecode": "0x608060405234801561001057600080fd5b506103aa806100206000396000f3fe60806040526004361061004a5760003560e01c8063326401cf1461004f5780634d9b3d5d1461008c5780639cb95b0f146100a9578063d975f3b7146100d6578063ed21248c146100f8575b600080fd5b34801561005b57600080fd5b5060015461006f906001600160a01b031681565b6040516001600160a01b0390911681526020015b60405180910390f35b34801561009857600080fd5b50475b604051908152602001610083565b3480156100b557600080fd5b5061009b6100c43660046102e9565b60026020526000908152604090205481565b3480156100e257600080fd5b506100f66100f1366004610319565b610100565b005b61009b610237565b6000546001600160a01b0316331461016b5760405162461bcd60e51b815260206004820152602360248201527f6f6e6c79206f776e65722063616e2070726f63657373207472616e73616374696044820152626f6e7360e81b60648201526084015b60405180910390fd5b33318111156101e25760405162461bcd60e51b815260206004820152603f60248201527f796f7520646f6e7420686176652073756666696369656e742062616c616e636560448201527f20746f2057697468647261772066726f6d2062616e6b20636f6e7472616374006064820152608401610162565b3360009081526002602052604081208054839290610201908490610348565b9091555050604051339082156108fc029083906000818181858888f19350505050158015610233573d6000803e3d6000fd5b5050565b600034333110156102b05760405162461bcd60e51b815260206004820152603c60248201527f796f7520646f6e7420686176652073756666696369656e742062616c616e636560448201527f20746f204465706f73697420696e2062616e6b20636f6e7472616374000000006064820152608401610162565b33600090815260026020526040812080543492906102cf908490610361565b909155505033600090815260026020526040902054919050565b6000602082840312156102fb57600080fd5b81356001600160a01b038116811461031257600080fd5b9392505050565b60006020828403121561032b57600080fd5b5035919050565b634e487b7160e01b600052601160045260246000fd5b8181038181111561035b5761035b610332565b92915050565b8082018082111561035b5761035b61033256fea264697066735822122027e234a4c347819331cdf02a93267415f4ff0deeb2fa216958e3d0494551548e64736f6c63430008130033",
  "immutableReferences": {},
  "source": "\r\n//SPDX-License-Identifier: UNLICENSED\r\npragma solidity ^0.8.0;\r\nimport \"./Ownable.sol\";\r\n\r\ncontract bank is Ownable {\r\n    // uint balance;\r\n    address public bankAddr;\r\n    mapping(address => uint256) public BankCuList;\r\n\r\n    function Deposit() public payable returns (uint256) {\r\n        require(\r\n            msg.sender.balance >= msg.value,\r\n            \"you dont have sufficient balance to Deposit in bank contract\"\r\n        );\r\n        BankCuList[msg.sender] += msg.value;\r\n        return BankCuList[msg.sender];\r\n    }\r\n\r\n    function getbalance() public view returns (uint256) {\r\n        return address(this).balance;\r\n    }\r\n\r\n    function withdr(uint256 _amount) public onlyowner {\r\n        require(\r\n            msg.sender.balance >= _amount,\r\n            \"you dont have sufficient balance to Withdraw from bank contract\"\r\n        );\r\n        BankCuList[msg.sender] -= _amount;\r\n        payable(msg.sender).transfer(_amount);\r\n    }\r\n}\r\n\r\n",
  "sourcePath": "C:\\Users\\Aftab\\Desktop\\Project Blockchain\\contracts\\Bank.sol",
  "compiler": {
    "name": "solc",
    "version": "0.8.19+commit.7dd6d404.Emscripten.clang"
  },
  "schemaVersion": "3.4.11",
  "updatedAt": "2023-03-22T10:40:01.303Z",
  "devdoc": {
    "kind": "dev",
    "methods": {},
    "version": 1
  },
  "userdoc": {
    "kind": "user",
    "methods": {},
    "version": 1
  }
}