{
  "contractName": "lottery",
  "abi": [
    {
      "inputs": [],
      "stateMutability": "nonpayable",
      "type": "constructor"
    },
    {
      "inputs": [
        {
          "internalType": "uint256",
          "name": "",
          "type": "uint256"
        }
      ],
      "name": "Participants",
      "outputs": [
        {
          "internalType": "address payable",
          "name": "",
          "type": "address"
        }
      ],
      "stateMutability": "view",
      "type": "function"
    },
    {
      "inputs": [],
      "name": "manager",
      "outputs": [
        {
          "internalType": "address",
          "name": "",
          "type": "address"
        }
      ],
      "stateMutability": "view",
      "type": "function"
    },
    {
      "stateMutability": "payable",
      "type": "receive"
    },
    {
      "inputs": [],
      "name": "getBalance",
      "outputs": [
        {
          "internalType": "uint256",
          "name": "",
          "type": "uint256"
        }
      ],
      "stateMutability": "view",
      "type": "function"
    },
    {
      "inputs": [],
      "name": "selectwinner",
      "outputs": [
        {
          "internalType": "address",
          "name": "",
          "type": "address"
        }
      ],
      "stateMutability": "view",
      "type": "function"
    }
  ],
  "bytecode": "0x608060405234801561001057600080fd5b50600080546001600160a01b03191633179055610323806100326000396000f3fe6080604052600436106100435760003560e01c806305747a1f146100a757806312065fe0146100e4578063481c6a7514610107578063f06e40ba1461012757600080fd5b366100a2573467016345785d8a00001461005c57600080fd5b6001805480820182556000919091527fb10e2d527612073b26eecdfd717e6a320cf44b4afac2b0732d9fcbe2b7fa0cf60180546001600160a01b03191633908117909155005b600080fd5b3480156100b357600080fd5b506100c76100c236600461029c565b61013c565b6040516001600160a01b0390911681526020015b60405180910390f35b3480156100f057600080fd5b506100f9610166565b6040519081526020016100db565b34801561011357600080fd5b506000546100c7906001600160a01b031681565b34801561013357600080fd5b506100c76101c5565b6001818154811061014c57600080fd5b6000918252602090912001546001600160a01b0316905081565b600080546001600160a01b031633146101c05760405162461bcd60e51b81526020600482015260176024820152762cb7ba9030b932903737ba103a34329036b0b730b3b2b960491b60448201526064015b60405180910390fd5b504790565b600154600080549091906001600160a01b031633146102205760405162461bcd60e51b81526020600482015260176024820152762cb7ba9030b932903737ba103a34329036b0b730b3b2b960491b60448201526064016101b7565b60018161022b610260565b61023591906102b5565b81548110610245576102456102d7565b6000918252602090912001546001600160a01b031692915050565b6000444260405160200161027e929190918252602082015260400190565b6040516020818303038152906040528051906020012060001c905090565b6000602082840312156102ae57600080fd5b5035919050565b6000826102d257634e487b7160e01b600052601260045260246000fd5b500690565b634e487b7160e01b600052603260045260246000fdfea2646970667358221220c5856e422d985821bb5f2a3ef34e98f1d249200a03606302163f64d2b09a137264736f6c63430008130033",
  "immutableReferences": {},
  "source": "//SPDX-License-Identifier: Unlicenced\r\npragma solidity ^0.8.0;\r\n\r\ncontract lottery {\r\n    address public manager;\r\n    address payable[] public Participants;\r\n\r\n    constructor() {\r\n        manager = msg.sender;\r\n    }\r\n\r\n    receive () external payable {\r\n        require(msg.value == 0.1 ether);\r\n        Participants.push(payable(msg.sender));\r\n    }\r\n\r\n    function getBalance() public view returns (uint256) {\r\n        require(msg.sender == manager, \"You are not the manager\");\r\n        return address(this).balance;\r\n    }\r\n    function random() private view returns (uint) {\r\n    return uint(keccak256(abi.encodePacked(block.difficulty, block.timestamp)));\r\n    }\r\n    function selectwinner () public view returns (address){\r\n        uint len = Participants.length;\r\n        require (msg.sender == manager, \"You are not the manager\");\r\n        return Participants[random()%len];\r\n\r\n    }\r\n}\r\n",
  "sourcePath": "C:\\Users\\Aftab\\Desktop\\Project Blockchain\\contracts\\Lottery.sol",
  "compiler": {
    "name": "solc",
    "version": "0.8.19+commit.7dd6d404.Emscripten.clang"
  },
  "schemaVersion": "3.4.11",
  "updatedAt": "2023-03-22T10:40:01.308Z",
  "devdoc": {
    "kind": "dev",
    "methods": {},
    "version": 1
  },
  "userdoc": {
    "kind": "user",
    "methods": {},
    "version": 1
  }
}