{
  "contractName": "Test",
  "abi": [
    {
      "inputs": [],
      "stateMutability": "payable",
      "type": "constructor"
    },
    {
      "inputs": [],
      "name": "mostSent",
      "outputs": [
        {
          "internalType": "uint256",
          "name": "",
          "type": "uint256"
        }
      ],
      "stateMutability": "view",
      "type": "function"
    },
    {
      "inputs": [],
      "name": "richest",
      "outputs": [
        {
          "internalType": "address",
          "name": "",
          "type": "address"
        }
      ],
      "stateMutability": "view",
      "type": "function"
    },
    {
      "inputs": [],
      "name": "becomeRichest",
      "outputs": [
        {
          "internalType": "bool",
          "name": "",
          "type": "bool"
        }
      ],
      "stateMutability": "payable",
      "type": "function"
    },
    {
      "inputs": [],
      "name": "withdraw",
      "outputs": [],
      "stateMutability": "nonpayable",
      "type": "function"
    }
  ],
  "bytecode": "0x6080604052600080546001600160a01b03191633179055346001556101d1806100296000396000f3fe60806040526004361061003f5760003560e01c806302e26c38146100445780633ccfd60b146100815780636886bf1c1461009857806369934ee7146100bc575b600080fd5b34801561005057600080fd5b50600054610064906001600160a01b031681565b6040516001600160a01b0390911681526020015b60405180910390f35b34801561008d57600080fd5b506100966100d4565b005b3480156100a457600080fd5b506100ae60015481565b604051908152602001610078565b6100c4610119565b6040519015158152602001610078565b33600081815260026020526040808220805490839055905190929183156108fc02918491818181858888f19350505050158015610115573d6000803e3d6000fd5b5050565b600060015434111561016e57600080546001600160a01b03168152600260205260408120805434929061014d908490610174565b9091555050600080546001600160a01b031916331790555034600190815590565b50600090565b8082018082111561019557634e487b7160e01b600052601160045260246000fd5b9291505056fea2646970667358221220a00d77aecebd8976acd1e726ac92e6e11fae8e66611c0a29d393dfebe2c5b98d64736f6c63430008130033",
  "immutableReferences": {},
  "source": "//SPDX-License-Identifier: UNLICENSED\r\npragma solidity ^0.8.0;\r\n\r\ncontract Test {\r\n   address public richest;\r\n   uint public mostSent;\r\n\r\n   mapping (address => uint) pendingWithdrawals;\r\n\r\n   constructor() public payable {\r\n      richest = msg.sender;\r\n      mostSent = msg.value;\r\n   }\r\n   function becomeRichest() public payable returns (bool) {\r\n      if (msg.value > mostSent) {\r\n         pendingWithdrawals[richest] += msg.value;\r\n         richest = msg.sender;\r\n         mostSent = msg.value;\r\n         return true;\r\n      } else {\r\n         return false;\r\n      }\r\n   }\r\n   function withdraw() public {\r\n      uint amount = pendingWithdrawals[msg.sender];\r\n      pendingWithdrawals[msg.sender] = 0;\r\n      payable(msg.sender).transfer(amount);\r\n   }\r\n}",
  "sourcePath": "C:\\Users\\Aftab\\Desktop\\Project Blockchain\\contracts\\Withdraw.sol",
  "compiler": {
    "name": "solc",
    "version": "0.8.19+commit.7dd6d404.Emscripten.clang"
  },
  "schemaVersion": "3.4.11",
  "updatedAt": "2023-03-22T10:40:01.317Z",
  "devdoc": {
    "kind": "dev",
    "methods": {},
    "version": 1
  },
  "userdoc": {
    "kind": "user",
    "methods": {},
    "version": 1
  }
}